:04000000FEEF7FF0A0
:10FEB400550E3901EF6FAA0EEF6FEF81120000EEBD
:10FEC40001F0090EEE6AE806FDE1000175EF7FF02E
:10FED4004F0EB96E040EB76E000EB66E3901A39FB5
:10FEE400800EB86E120080EC7FF03F0E3B01F16F84
:10FEF400CC0EF06F7CEF7FF0FEEF7FF08DEC7FF0A7
:10FF0400D8EC7FF09FEC7FF0B2EC7FF06AEC7FF0EE
:10FF14005AEC7FF01200000E3901C06F000EC16F61
:10FF2400000EC26F000EC36F000EC46F000EC56FCB
:10FF3400000EC66F000EC76F1200200E3901D96F74
:10FF4400000EDB6F000EDD6F020EDF6F000EDE6F42
:10FF5400DCA1AFEF7FF0B1EF7FF0AAEF7FF01200EA
:10FF6400010E3B01F96F000EFA6F000EFB6F000EDD
:10FF7400F16F090EF06F020EFD6F000EF86F080EA0
:10FF8400F76F000EEF6F020EEE6F1F0EFF6F000E85
:10FF9400FE6F3901A293A291A297A2959293929196
:10FFA40092979295C00E3B01FC6F1200000EBA6E40
:10FFB400000EBB6E000EBC6EC268C368F00EC46E49
:10FFC400F00E3A01606F50694069000E816F000EB7
:10FFD400516F000E416F000E616F000E426F000EF4
:10FFE400526F000E626F43695369636944695469CF
:0CFFF4006469080E846F120061EF7FF05A
:020000040020DA
:10000000FF0FFF0FFF0FFF0FFF0FFF0FFF0FFF0F80
:020000040030CA
:0A000000AAFFF7FF9FFFFFFFFFFFBD
:00000001FF
