:0400000054EF00F0C9
:10000800D000D000D000D000D000D000D000D00068
:10001800D000D000D000D000D000D000D000D00058
:10002800D000D000D000D000D000D000D000D00048
:10003800D000D000D000D000D000D000D0006B009D
:10004800D000D000D000D000D000D000D000D00028
:10005800D000D000D000D000D000D000D000D00018
:10006800D000D000D000D000D000D000D000D00008
:10007800D000D000D000D000D000D000D000D000F8
:10008800D000D000D000D000D000D000D000D000E8
:10009800D000D000D000D000D000D000D000FF00A9
:1000A80073EF01F0014A022AAC0E011807E10D0EA8
:1000B8000218D8A462EF00F064EF00F06FEF00F0D0
:1000C8003B01FD51F90B0409FD6F0D0EF96F000E90
:1000D800FA6F000EFB6F590E015C1B0E0258D8A078
:1000E80078EF00F07AEF00F089EF00F0000E026E72
:1000F800000E016E3B01FD51F90B0209FD6F050E63
:10010800F96F000EFA6F000EFB6F1200000EBA6E48
:10011800000EBB6E000EBC6EC268C368F00EC46EE3
:10012800F00E3A01606F50694069000E816F000E51
:10013800516F000E416F000E616F000E426F000E8E
:10014800526F000E626F4369536963694469546969
:100158006469080E846F1200050E3B01F96F000EEA
:10016800FA6F000EFB6F000EF16F0D0EF06F020EAE
:10017800FD6F000EF86F080EF76F000EEF6F010E9F
:10018800EE6F1F0EFF6F000EFE6F3901A293A29152
:10019800A297A2959293929192979295C00E3B0145
:1001A800FC6F12006F00E8FF0EF06F00ECFF0FF01D
:1001B8003901A39F03500410D8B4E5EF00F0E7EF2E
:1001C80000F0F4EF00F002D8F4EF00F00500FA6E4A
:1001D8000350FD6E0450FE6EF850FF6EFA50120088
:1001E80060003FF0FBFF60003BF0FAFF110084EC79
:1001F80001F0AC0E106E000E116E9AEC01F0090EB3
:10020800056E0C0E066E060E076E030E086E090EBE
:10021800096E0C0E0A6E060E0B6E030E0C6E3F0E68
:100228003B01F16FCC0EF06FD28ED28C1AEF01F039
:1002380054EF00F0D28A000ED2BE010E106ED29E8C
:10024800550ED46EAA0ED46ED490000ED76E000E42
:10025800D66E080ED56E550ED46EAA0ED46ED48006
:1002680010B002D0D29E01D0D28E3901838F1200F5
:10027800200E3901D96F000EDB6F000EDD6F020E04
:10028800DF6F000EDE6FDCA14CEF01F04EEF01F0E6
:1002980047EF01F012004F0EB96E040EB76E000E54
:1002A800B66E3901A39F938F3E0E106E030E116E2A
:1002B8009AEC01F0800EB86E1200000E3901C06F82
:1002C800000EC16F000EC26F000EC36F000EC46F28
:1002D800000EC56F000EC66F000EC76F120000EE4D
:1002E80001F00D0EEE6AE806FDE1080ED56E000E6F
:1002F800D66E000ED76E000EF86E0001FBEF00F010
:100308001EEC01F061EC01F08AEC00F03CEC01F02D
:10031800B0EC00F04FEC01F093EC01F01200550E38
:100328003901EF6FAA0EEF6FEF81120010C003F0D2
:0A03380011C004F0120012001100C1
:020000040020DA
:10000000FF0FFF0FFF0FFF0FFF0FFF0FFF0FFF0F80
:020000040030CA
:0A000000AAFFFFFF9FFFFFFFFFFFB5
:00000001FF
